{
  "contractName": "Attention",
  "abi": [
    {
      "constant": true,
      "inputs": [
        {
          "name": "",
          "type": "uint256"
        }
      ],
      "name": "videos",
      "outputs": [
        {
          "name": "name",
          "type": "string"
        },
        {
          "name": "description",
          "type": "string"
        },
        {
          "name": "videoId",
          "type": "uint256"
        }
      ],
      "payable": false,
      "stateMutability": "view",
      "type": "function"
    },
    {
      "anonymous": false,
      "inputs": [
        {
          "indexed": false,
          "name": "videoId",
          "type": "uint256"
        },
        {
          "indexed": false,
          "name": "creatorId",
          "type": "address"
        }
      ],
      "name": "videoAdded",
      "type": "event"
    },
    {
      "constant": false,
      "inputs": [
        {
          "name": "_name",
          "type": "string"
        },
        {
          "name": "_description",
          "type": "string"
        }
      ],
      "name": "addVideo",
      "outputs": [],
      "payable": false,
      "stateMutability": "nonpayable",
      "type": "function"
    },
    {
      "constant": false,
      "inputs": [
        {
          "name": "_videoId",
          "type": "uint256"
        }
      ],
      "name": "videoEarnings",
      "outputs": [],
      "payable": true,
      "stateMutability": "payable",
      "type": "function"
    }
  ],
  "bytecode": "0x60806040526004600055600060015534801561001a57600080fd5b50610b1e8061002a6000396000f3fe6080604052600436106100345760003560e01c80630dbd9bdc146100395780638c7db92014610198578063e6821bf5146101c6575b600080fd5b34801561004557600080fd5b506101966004803603604081101561005c57600080fd5b810190808035906020019064010000000081111561007957600080fd5b82018360208201111561008b57600080fd5b803590602001918460018302840111640100000000831117156100ad57600080fd5b91908080601f016020809104026020016040519081016040528093929190818152602001838380828437600081840152601f19601f8201169050808301925050505050505091929192908035906020019064010000000081111561011057600080fd5b82018360208201111561012257600080fd5b8035906020019184600183028401116401000000008311171561014457600080fd5b91908080601f016020809104026020016040519081016040528093929190818152602001838380828437600081840152601f19601f8201169050808301925050505050505091929192905050506102ed565b005b6101c4600480360360208110156101ae57600080fd5b8101908080359060200190929190505050610496565b005b3480156101d257600080fd5b506101ff600480360360208110156101e957600080fd5b8101908080359060200190929190505050610725565b604051808060200180602001848152602001838103835286818151815260200191508051906020019080838360005b8381101561024957808201518184015260208101905061022e565b50505050905090810190601f1680156102765780820380516001836020036101000a031916815260200191505b50838103825285818151815260200191508051906020019080838360005b838110156102af578082015181840152602081019050610294565b50505050905090810190601f1680156102dc5780820380516001836020036101000a031916815260200191505b509550505050505060405180910390f35b6001600081548092919060010191905055506000600154905061030e61087f565b6040518060800160405280858152602001848152602001838152602001600160405190808252806020026020018201604052801561035b5781602001602082028038833980820191505090505b50815250905033816060015160008151811061037357fe5b602002602001019073ffffffffffffffffffffffffffffffffffffffff16908173ffffffffffffffffffffffffffffffffffffffff1681525050806002600084815260200190815260200160002060008201518160000190805190602001906103dd9291906108a7565b5060208201518160010190805190602001906103fa9291906108a7565b50604082015181600201556060820151816003019080519060200190610421929190610927565b509050507f575c04ce1860600eaadeffb7de46bfa696eef7a41f20431cf444a41ede93ebcc8233604051808381526020018273ffffffffffffffffffffffffffffffffffffffff1673ffffffffffffffffffffffffffffffffffffffff1681526020019250505060405180910390a150505050565b6000600260008381526020019081526020016000209050600060018260030180549050039050816003016000815481106104cc57fe5b9060005260206000200160009054906101000a900473ffffffffffffffffffffffffffffffffffffffff1673ffffffffffffffffffffffffffffffffffffffff166108fc60026000548161051c57fe5b049081150290604051600060405180830381858888f19350505050158015610548573d6000803e3d6000fd5b50600060026001830183028161055a57fe5b049050600080905060008090506000600190505b856003018054905081101561062c57600181038503915083828161058e57fe5b0492508560030181815481106105a057fe5b9060005260206000200160009054906101000a900473ffffffffffffffffffffffffffffffffffffffff1673ffffffffffffffffffffffffffffffffffffffff166108fc60026000548602816105f257fe5b049081150290604051600060405180830381858888f1935050505015801561061e573d6000803e3d6000fd5b50808060010191505061056e565b50846003013390806001815401808255809150509060018203906000526020600020016000909192909190916101000a81548173ffffffffffffffffffffffffffffffffffffffff021916908373ffffffffffffffffffffffffffffffffffffffff160217905550508460026000888152602001908152602001600020600082018160000190805460018160011615610100020316600290046106d09291906109b1565b50600182018160010190805460018160011615610100020316600290046106f89291906109b1565b50600282015481600201556003820181600301908054610719929190610a38565b50905050505050505050565b6002602052806000526040600020600091509050806000018054600181600116156101000203166002900480601f0160208091040260200160405190810160405280929190818152602001828054600181600116156101000203166002900480156107d15780601f106107a6576101008083540402835291602001916107d1565b820191906000526020600020905b8154815290600101906020018083116107b457829003601f168201915b505050505090806001018054600181600116156101000203166002900480601f01602080910402602001604051908101604052809291908181526020018280546001816001161561010002031660029004801561086f5780601f106108445761010080835404028352916020019161086f565b820191906000526020600020905b81548152906001019060200180831161085257829003601f168201915b5050505050908060020154905083565b6040518060800160405280606081526020016060815260200160008152602001606081525090565b828054600181600116156101000203166002900490600052602060002090601f016020900481019282601f106108e857805160ff1916838001178555610916565b82800160010185558215610916579182015b828111156109155782518255916020019190600101906108fa565b5b5090506109239190610a8a565b5090565b8280548282559060005260206000209081019282156109a0579160200282015b8281111561099f5782518260006101000a81548173ffffffffffffffffffffffffffffffffffffffff021916908373ffffffffffffffffffffffffffffffffffffffff16021790555091602001919060010190610947565b5b5090506109ad9190610aaf565b5090565b828054600181600116156101000203166002900490600052602060002090601f016020900481019282601f106109ea5780548555610a27565b82800160010185558215610a2757600052602060002091601f016020900482015b82811115610a26578254825591600101919060010190610a0b565b5b509050610a349190610a8a565b5090565b828054828255906000526020600020908101928215610a795760005260206000209182015b82811115610a78578254825591600101919060010190610a5d565b5b509050610a869190610aaf565b5090565b610aac91905b80821115610aa8576000816000905550600101610a90565b5090565b90565b610aef91905b80821115610aeb57600081816101000a81549073ffffffffffffffffffffffffffffffffffffffff021916905550600101610ab5565b5090565b9056fea165627a7a7230582075db5cc7520439517ddbc746944848f199d363f8e7255c0b9ae11bd5e06171dd0029",
  "source": "/************Part of project demonstrated at ETHIndia 2.0************/\n/*******************Kindly mention suitable Credits******************/\n// Team : CH3-O-CH3\n// Version : beta\n// requires are not analyzed\n// ipfs to be implemented\n// repeated viewer not implemented\npragma solidity ^0.5.7;\n\ncontract Attention {\n    uint initialViewFee = 4 wei;       // UNIT OF CRYPTOCURRENCY TO BE TAKEN CARE OF\n\n    struct Video {\n        string name;\n        string description;         //Other COmplementary things like date n all can be implemented\n        uint videoId;               //More advanced functionality like category can also be implemented\n        //address payable creatorId;\n        address payable[] users;\n        //string ipfsHash;          //To be implemented Later\n        //bool isPrivate;\n    }\n\n    uint videoNos = 0;\n    mapping (uint => Video) public videos;\n\n    // Including users and Videos array hence no need to declare a constructor\n    event videoAdded(\n        uint videoId,\n        address payable creatorId\n    );\n\n    function addVideo(string memory _name, string memory _description) public {            //EVENT FOR VIDEO ADDITION TO BE CREATED\n        //require(bytes(_name).length != 0, \"Name of the Video cannot be Empty\");\n        videoNos++;\n        uint _videoId = videoNos;\n        Video memory video = Video(\n            _name,\n            _description,\n            _videoId,\n            new address payable[](1)\n        );\n        video.users[0] = msg.sender;\n        videos[_videoId] = video;\n        emit videoAdded(_videoId, msg.sender);\n    }\n\n    function videoEarnings(uint _videoId) public payable {    //address need not be given as input msg.sender can be used\n        Video storage videoClicked = videos[_videoId];              //SOME SERIOUS REFACTORING NEEDED\n        //require(msg.sender != videoClicked.creatorId);\n\n        uint views = videoClicked.users.length - 1;\n        //videoClicked.creatorId.transfer(initialViewFee/2);\n        videoClicked.users[0].transfer(initialViewFee/2);\n        uint deno = views*(views + 1)/2;\n        uint fraction = 0;\n        uint num = 0;\n        for(uint i = 1; i < videoClicked.users.length; i++){\n            num = views - (i - 1);\n            fraction = num/deno;\n            videoClicked.users[i].transfer(fraction * initialViewFee / 2);\n        }\n\n        videoClicked.users.push(msg.sender);                      //Check Whether the user is already in the users List\n        //Persisting Video and User\n        videos[_videoId] = videoClicked;\n    }\n}\n",
  "sourcePath": "/home/mayank/Stake_Tube/contracts/attention.sol",
  "compiler": {
    "name": "solc",
    "version": "0.5.8+commit.23d335f2.Emscripten.clang"
  },
  "schemaVersion": "3.0.11",
  "updatedAt": "2019-08-03T12:53:02.496Z",
  "devdoc": {
    "methods": {}
  },
  "userdoc": {
    "methods": {}
  }
}